:030000000204FBFC
:0904FB0075A04075818F02053FD8
:030013000207F0F1
:1007F000C0E0C0F0C083C082C0D075D0101280307D
:0E0800001211ECD0D0D082D083D0F0D0E032F4
:1007CB00420F020000420F040000420F00000142E2
:1007DB000F060000410F1700410F3700410F380281
:0407EB00410F89042D
:100584001202611208B91208C37F3C1206B18F0C23
:100594007F021206B18F0CE4FF1206B18F0C120811
:1005A4007112080E120016900F17EFF01208B9120C
:1005B40008C37F3C1206B18F0C7F031206B18F0C67
:1005C4007F021206B18F0C1208717E0F7F8B12010D
:1005D400627E0F7F8B7D0A1206F512072F12085CCC
:1005E40012072F12085C12072F12085C12072F1231
:0705F400085C12082B80AD2A
:10082B00900F89E0FFA3E0FD12805D7F667E667D01
:09083B00007C011280E70280C07C
:10084400E5BE5420C413540770032091067E007F34
:080854000180047E007F0022F8
:100465001208C37F3C1206B17F031206B112087150
:100475001208C37F3D1206B112079D900F18E4F0D4
:10048500A3EFF0120885900F19E0F8E4F0E8900F5B
:1004950018F012079D900F18E0F0A3E04FF0120836
:1004A5008512079D900F25E4F0A3EFF012088590C3
:1004B5000F26E0F8E4F0E8900F25F012079D900F65
:1004C50025E0F0A3E04FF012088512079D900F2359
:1004D500E4F0A3EFF0120885900F24E0F8E4F0E8CB
:1004E500900F23F012079D900F23E0F0A3E04FF04B
:0604F500120899020871D3
:1002610053B51F43B58053B57FD2BA7F011280B118
:100271007F011280A2900F27120633000000009028
:100281000F2B12063300000000900F2F7450F090D6
:100291000F31E4F0A374C0F0900F307401F07E0FC1
:1002A1007F271211E9900F1A7401F0A37405F0E48D
:1002B100A3F0A37407F0A314F0A3741BF0E4A3F05C
:1002C100A37405F0A314F07E0F7F1A128084E4FD5D
:1002D100FC7F011280E11280F97F167ECF7DD17CF7
:1002E1004D1280F67E0F7F081203CC1211E6900F9B
:1002F1003312873AE4900F8AF0900F33A3A3E0FE04
:10030100A3E0FF1206A6120844EF4E900F89700B6E
:10031100E0FF12805A900F8AEFF022E0FFE4FD1215
:03032100805D22DA
:06072F007E0F7F8B7D0AA6
:100735008E188F198D1A7F0312803C7E0F7F081249
:1007450008AD7F0C1280FC128036EF60FA12802A09
:100755001280901280D5AD1AAF19AE181280DB0247
:0207650011E39E
:0306F500C9EDC983
:1006F800E4F518F519E9FDC3E5199D7480F8651846
:10070800985023EF2519F582EE3518F583E0F4FDAE
:10071800EF2519F582EE3518F583EDF00519E51981
:0607280070D3051880CF1C
:01072E0022A8
:040162008E188F194B
:10016600E4FF1280F08E1A8F1B851982851883741E
:10017600FFF0A3743DF0900F33E0FCA3E0FDA3E095
:10018600FEA3E0FF7818128400851982851883A3E0
:10019600A3EFF0900F33E0FCA3E0FDA3E0FEA3E0A5
:1001A600FF7810128400851982851883A3A3A3EF14
:1001B600F0900F33E0FCA3E0FDA3E0FEA3E0FF78A0
:1001C60008128400E5192404F582E43518F583EF56
:1001D600F0900F33E0FCA3E0FDA3E0FEA3E0FFE513
:1001E600192405F582E43518F583EFF0900F17E032
:1001F600C43333335480FF900F8AE04FFFE5192450
:1002060006F582E43518F583EFF07F0312803C1281
:100216008036EF60FA12802A7C007DDC12895BEF63
:100226002419FFE5192407F582E43518F583EFF064
:10023600E51AFFE5192408F582E43518F583EFF091
:10024600E5192409F582E43518F583E51BF0900FCE
:0A0256008AE00475F07F84E5F0F003
:01026000227B
:10080E00E4FFFEE4FDFC0DBD00010CBC27F8BD109D
:0C081E00F50FBF00010EEF640A4E70E7FA
:01082A0022AB
:10085C001206647C077DD012895BED2430FFEC34EA
:05086C00F8FE0280C34C
:10001600E4F518F519120465900F18E0FCA3E0FD4D
:10002600E51925E0FFE51833FE74392FF582740FC4
:100036003EF583ECF0A3EDF0900F25E0FCA3E0FD88
:1000460074612FF582740F3EF583ECF0A3EDF01288
:10005600080E0519E51970020518C39414E518640D
:1000660080948040B07B017A0F7939120767900F30
:1000760002EEF0A3EFF07B017A0F79611207679029
:100086000F04EEF0A3EFF0120844EF4E604E900F0F
:1000960002E0F51CA3E0F51DA3E0F51EA3E0F51FA5
:1000A600E51CFF3395E0EFFD900F37E0FF12805D12
:1000B600900F37E004FFE51DFD12805DE51EFF335E
:1000C60095E0EFFD900F38E0FF12805D900F38E06D
:1000D60004FFE51FFD12805DE4FEFF22900F37E06E
:1000E600FF12805AEF751D00F51C900F37E004FFD4
:1000F60012805AEF421DE4900F38E0FF12805AEF4B
:10010600751F00F51E900F38E004FF12805AEF426B
:100116001FC3900F03E0951DFF900F02E0951CFE94
:10012600128AB38E1A8F1BC3900F05E0951FFF909E
:100136000F04E0951EFE128AB3C3E51B9432E51A3E
:1001460064809480500BC3EF9432EE6480948040B8
:0B015600067E007F0180047E007F0019
:01016100227B
:10076700E4F520F521FDFCED25E0FFEC338F82F564
:10077700831205FBAEF02521F521EE3520F5200D7E
:10078700BD00010CED64144C70DDAE20AF217C0080
:050797007D1412895BD6
:01079C00223A
:0A08B900D283120003D28202000372
:0A08C300C283120003C28202000388
:10087100C282120003C283120003D282120003D289
:0408810083020003EB
:10088500C283120003D282120003C282120003D275
:0408950083020003D7
:10089900D283120003D282120003C282120003D251
:0408A90083020003C3
:0206B1008F2098
:1006B300E4F521E52020E704C2838002D2831200FF
:1006C30003D282120003C282E52025E0F520120046
:1006D300030521E521C3940840D9D283120003D234
:1006E30082120003A283E433F522C282120003AF15
:0106F30022E4
:0106F40022E3
:10079D00E4F521F520D282120003308303432101B9
:1007AD00E520C394075006E52125E0F521C282120C
:0D07BD0000030520E520C3940840DAAF21B9
:0107CA00220C
:0E000300E4FFFE0FBF00010EEF64064E70F525
:0100110022CC
:1003CC00CBEFCBCAEECA90401EE08B828A83F0A39F
:1003DC00E5C3F08B828A83A3A3E5C2F0904014E0BE
:1003EC008B828A83A3A3A3F0904013E0FFEB240439
:1003FC00F582E43AF583EFF0904020E0FFEB240522
:10040C00F582E43AF583EFF0E5E45480FFEB240643
:10041C00F582E43AF583EFF0901162E0FEA3E0FF81
:10042C00EB2407F582E43AF583EEF0A3EFF090119C
:10043C0064E0FEA3E0FFEB2409F582E43AF583EED9
:10044C00F0A3EFF0901166128709EB240BF582E410
:09045C003AF58312873A7F0F2262
:0C08AD001203247F0312803C12810222FF
:1003240090401FE054FC4401F08F828E83E09040A3
:100334001EF08F828E83A3E0F5C38F828E83A3A3E6
:10034400E0F5C28F828E83A3A3A3E0904014F0EF64
:100354002404F582E43EF583E0904013F0EF240595
:10036400F582E43EF583E0904020F0EF2406F58228
:10037400E43EF583E05480FDE5E4547F4DF5E4EF7D
:100384002407F582E43EF583E0FDA3E0901162CDFD
:10039400F0A3EDF0EF2409F582E43EF583E0FDA33C
:1003A400E0901164CDF0A3EDF0EF240BF582E43E70
:1003B400F58312870990116612873AE5A930E3079D
:0803C4007F827E001280C3223B
:10050400020584E493A3F8E493A34003F68001F284
:1005140008DFF48029E493A3F85407240CC8C333F8
:10052400C4540F4420C8834004F456800146F6DFC7
:10053400E4800B01020408102040809007CBE47E85
:10054400019360BCA3FF543F30E509541FFEE493BC
:10055400A360010ECF54C025E060A840B8E493A383
:10056400FAE493A3F8E493A3C8C582C8CAC583CAAE
:10057400F0A3C8C582C8CAC583CADFE9DEE780BE66
:0107EF000009
:1005FB00BB0110E58229F582E5833AF583E0F5F03E
:10060B00A3E0225009E92582F886F008E622BBFE1A
:10061B000AE92582F8E2F5F008E222E5832AF58360
:08062B00E993F5F0A3E9932225
:10063300A8828583F0D083D08212064A12064A121A
:10064300064A12064AE473E493A3C583C5F0C5833F
:10065300C8C582C8F0A3C583C5F0C583C8C582C811
:010663002274
:10066400AC08AD09AE0AAF0B7810EC4D4E4F7004D8
:100674007CA57DA5C3EC13FCED13FDEE13FEEF1377
:10068400FF5010EC64CCFCED644CFDEE644EFEEFC8
:1006940064CEFFD8DF8C088D098E0A8F0BEE547F51
:0D06A400FE228E088F0974A5F50AF50B22C1
:00000001FF
